:020000040800F2
:10000000C80C002041030008792400087B24000864
:100010007F240008832400088724000800000000D3
:100020000000000000000000000000008B24000819
:100030008D240008000000008F240008912400088F
:100040005B0300085B0300085B0300085B03000818
:100050005B0300085B0300085B0300085B03000808
:100060001D5300085B0300085B0300085B030008E6
:100070005B0300085B0300085B0300085B030008E8
:100080005B0300085B0300085B0300085B030008D8
:100090005B0300085B0300085B030008932400086F
:1000A0005B0300085B0300085B0300085B030008B8
:1000B00055530008815300085B0300085B030008E8
:1000C0005B0300085B0300085B0300085B03000898
:1000D0005B030008952400085B0300085B0300082D
:1000E0005B0300085B0300085B03000800F002F8F4
:1000F00000F03AF80AA090E8000C82448344AAF188
:100100000107DA4501D100F02FF8AFF2090EBAE885
:100110000F0013F0010F18BFFB1A43F0010318473B
:100120001856000038560000103A24BF78C878C12D
:10013000FAD8520724BF30C830C144BF04680C60ED
:10014000704700000023002400250026103A28BF35
:1001500078C1FBD8520728BF30C148BF0B60704739
:100160001FB51FBD10B510BD05F07FFA1146FFF792
:10017000F7FF05F0D7F905F09DFA03B4FFF7F2FF9A
:1001800003BC05F0A1FA00000CB50020019000901E
:100190006348006840F480306149086000BF6048EF
:1001A000006800F4003000900198401C0190009815
:1001B00018B90198B0F5A06FF1D15948006800F462
:1001C000003010B10120009001E000200090009864
:1001D000012831D15248406851494860084640687A
:1001E00048600846406848600846406820F47C1033
:1001F00048600846406840F4981048600846006827
:1002000040F08070086000BF4548006800F0007052
:100210000028F9D04248406820F003004049486077
:100220000846406840F00200486000BF3C48406813
:1002300000F00C000828F9D10CBD10B5FFF7A4FFA1
:1002400010BD10B53648006840F001003449086020
:10025000084640683349084031494860084600680C
:10026000314908402E4908600846006820F4802083
:1002700008600846406820F4FE0048604FF41F0004
:1002800088600020C862FFF7D8FF4FF00060274960
:10029000086010BD30B50021002000220023204C52
:1002A000646804F00C0121B1042906D0082925D185
:1002B00007E01F4C1F4D2C6024E01D4C1D4D2C6091
:1002C00020E0174C646804F47010154C646804F462
:1002D0008032022404EB904022B9174C4443154D60
:1002E0002C600AE00E4CE46A04F00F04631C104C0E
:1002F000B4FBF3F444430F4D2C6003E00C4C0D4D64
:100300002C6000BF00BF064C6468C4F303140B4D9F
:10031000295D084C2468CC40064D2C6030BD00009F
:10032000001002400000FFF8FFFFF6FE08ED00E0BD
:1003300000127A000000002000093D0004000020A7
:100340000948804709480047FEE7FEE7FEE7FEE769
:10035000FEE7FEE7FEE7FEE7FEE7FEE704480549A5
:10036000054A064B7047000043020008ED000008F4
:10037000C8060020C80C0020C8080020C8080020BB
:10038000E648006840F00100E4490860084640681B
:10039000E3490840E149486008460068E1490840EF
:1003A000DE4908600846006820F48020086008469E
:1003B000406820F4FE0048604FF41F008860002071
:1003C000C8627047D549096821F48031D34A116069
:1003D0001146096821F480211160B0F5803F03D0F7
:1003E000B0F5802F0ED106E0CC49096841F4803188
:1003F000CA4A116007E0C949096841F4A021C74A07
:10040000116000E000BF00BF704710B50146002238
:10041000002300204A11012A02D1C04C236806E0C3
:10042000022A02D1BD4C236A01E0BC4C636A01F090
:100430001F02012494401C400CB1012000E0002068
:1004400010BD38B5002000900024002500BF3120E9
:10045000FFF7DBFF05460098401C00900098B0F5C0
:10046000A06F01D0002DF2D03120FFF7CEFF08B1F0
:10047000012400E00024204638BD01460020A74AA0
:10048000106820F0F80040EAC10010607047A649EB
:100490000860704702460020A04B586820F4741092
:1004A00042EA010318439D4B586070479E49086615
:1004B000704702460020994BD86A9C4B184042EA8C
:1004C00001031843954BD862704701460020934AB8
:1004D000506820F003000843506070478F48406820
:1004E00000F00C007047014600208C4A506820F054
:1004F000F00008435060704701460020874A50686A
:1005000020F4E06008435060704701460020834AB1
:10051000506820F4605040EAC1005060704729B133
:100520007E4A527A02437D4B5A7204E07B4A527AE9
:1005300082437A4B5A7270477B49D83108607047C2
:1005400001460020754A506820F44040084350603E
:1005500070470021714A20321170704A82F82010D1
:10056000012802D004280AD104E001216B4A20327C
:10057000117005E00521694A2032117000E000BFCA
:1005800000BF70476A49086070476449096A0143BF
:10059000624A11627047664944390860704770B515
:1005A000002100230024002200255C4E766806F01E
:1005B0000C0121B1042905D0082921D105E05D4EA7
:1005C000066020E05B4E06601DE0544E766806F43F
:1005D0007013524E766806F48034022606EB93437D
:1005E0001CB9554E5E43066009E04C4EF66A06F0B3
:1005F0000F06751C4F4EB6FBF5F65E43066002E033
:100600004C4E066000BF00BF444E766806F0F00115
:1006100009094A4E725C0668D64046603F4E7668CD
:1006200006F4E061090A454E725C4668D640866071
:100630003A4E766806F46051C90A404E725C4668CC
:10064000D640C660354E766806F44041890B3C4E74
:10065000725CC668B6FBF2F6066170BD29B12F4A1E
:10066000526902432D4B5A6104E02C4A526982437D
:100670002A4B5A61704729B1284A92690243274B95
:100680009A6104E0254A92698243244B9A6170473B
:1006900029B1224AD2690243204BDA6104E01F4AA1
:1006A000D26982431D4BDA61704729B11B4AD26877
:1006B00002431A4BDA6004E0184AD2688243174BAF
:1006C000DA60704729B1154A12690243134B1A6167
:1006D00004E0124A12698243104B1A6170471449B0
:1006E0004039086070471049C86470470B49C871A9
:1006F00070470A48406A40F0807008494862704775
:1007000001460020054A92680A400AB1012000E033
:1007100000207047014988727047000000100240B5
:100720000000FFF8FFFFF6FE00004242F0FFFEFF70
:100730008004424200127A0000093D0014000020AB
:100740002400002010B50446FB48844209D1012151
:100750008803FFF7AAFF00214FF48040FFF7A5FFB1
:1007600032E0F648844209D101214804FFF7AAFF8C
:1007700000214FF40030FFF7A5FF25E0F048844248
:1007800009D101218804FFF79DFF00214FF480204B
:10079000FFF798FF18E0EB48844209D10121C80413
:1007A000FFF790FF00214FF40020FFF78BFF0BE0D5
:1007B000E548844208D101210805FFF783FF0021A5
:1007C0004FF48010FFF77EFF10BD2DE9F04786B093
:1007D00005460E460024A24600BFA1460027B08968
:1007E00000B100BF2F462C8A4CF6FF700440F08801
:1007F00004432C82AC894EF6F3100440B088318952
:100800000843718908430443AC81AC8A4FF6FF402A
:100810000440B0890443AC8201A8FFF7C0FEC6487B
:10082000874202D1DDF810A001E0DDF80CA0A88914
:1008300000F4004040B10AEBCA0000EB0A10316836
:100840004900B0FBF1F807E00AEBCA0000EB0A1020
:1008500031688900B0FBF1F86420B8FBF0F00401C6
:100860002009642101FB1089A88900F4004040B1EF
:10087000322000EBC900B0FBF1F000F007000443A8
:1008800008E0322000EB09106421B0FBF1F000F029
:100890000F0004432C8106B0BDE8F0874FF41651D9
:1008A000016000218180C18001810C2141810021F2
:1008B0008181704710B502460020108A4FF2FF0375
:1008C00018400B884C8823438C882343CC882343CF
:1008D0001843108210BD0021018041808180C180B9
:1008E000704721B1828942F40052828104E08289FA
:1008F0004DF6FF731A4082817047F0B5034600241D
:1009000000260025002040F66A17B94200D100BF3A
:100910001846C1F3421401F01F06012707FA06F535
:10092000012C01D10C3004E0022C01D1103000E088
:1009300014301AB107682F43076002E00768AF431D
:100940000760F0BD1AB1838A0B43838202E0838A79
:100950008B4383827047028A4FF6F0731A400282FB
:10096000028A0A430282704782894FF2FF731A405B
:10097000828182890A438281704721B1828942F053
:100980000202828104E082894FF6FD731A4082815F
:100990007047028A4FF6DF731A400282028A0A43C6
:1009A0000282704721B1028A42F48042028204E04E
:1009B000028A4BF6FF731A4002827047C1F30802A5
:1009C0008280704701468888C0F30800704781899B
:1009D00041F0010181817047028BD2B20283028B08
:1009E00042EA012202837047028B02F47F420283B3
:1009F000028B0A430283704721B1828A42F02002AF
:100A0000828204E0828A4FF6DF731A408282704746
:100A100021B1828A42F01002828204E0828A4FF67B
:100A2000EF731A408282704721B1828A42F0080235
:100A3000828204E0828A4FF6F7731A4082827047FE
:100A400021B1828942F40042828103E08289C2F3AB
:100A50000E028281704721B1828A42F40062828252
:100A600004E0828A4FF2FF731A4082827047828AC2
:100A70004FF6FB731A408282828A0A438282704751
:100A800021B1828A42F00202828204E0828A4FF619
:100A9000FD731A408282704702460020B1F5007F44
:100AA00000D100BF13880B400BB1012000E00020F3
:100AB000704701F40072B2F5007F00D100BFCA4355
:100AC0000280704770B502460024002300250020F4
:100AD00040F66A16B14200D100BFC1F3421501F0E1
:100AE0001F03012606FA03F3012D02D19689334034
:100AF00006E0022D02D1168A334001E0968A334087
:100B00000C12012606FA04F41688344013B10CB115
:100B1000012000E0002070BD10B50022002340F647
:100B20006A14A14200D100BF0A1201249440A3B26A
:100B3000DC43048010BD0000003801400044004048
:100B400000480040004C00400050004010B50446F2
:100B5000CC48844208D101210420FFF7A6FD0021E2
:100B60000420FFF7A2FD46E0C748844208D10121D6
:100B70000820FFF79AFD00210820FFF796FD3AE0D4
:100B8000C248844208D101211020FFF78EFD0021C8
:100B90001020FFF78AFD2EE0BD48844208D10121D4
:100BA0002020FFF782FD00212020FFF77EFD22E0BC
:100BB000B848844208D101214020FFF776FD00218A
:100BC0004020FFF772FD16E0B348844208D10121AE
:100BD0008020FFF76AFD00218020FFF766FD0AE014
:100BE000AE48844207D101218015FFF75EFD002148
:100BF000A015FFF75AFD10BD10B501210846FFF7FB
:100C000054FD00210120FFF750FD10BD2DE9F041FA
:100C1000024600250026002000230024002791F82A
:100C200003C00CF00F0591F803C00CF0100CBCF1E0
:100C3000000F03D091F802C04CEA050591F800C0FE
:100C4000BCF1000F31D0146800202BE04FF0010CF4
:100C50000CFA00F3B1F800C00CEA03069E4220D162
:100C600083004FF00F0C0CFA03F7BC4305FA03FCAA
:100C70004CEA040491F803C0BCF1280F06D14FF0F0
:100C8000010C0CFA00FCC2F814C00AE091F803C091
:100C9000BCF1480F05D14FF0010C0CFA00FCC2F872
:100CA00010C0401C0828D1D31460B1F800C0BCF1BA
:100CB000FF0F34DD546800202EE000F1080C4FF0E7
:100CC000010808FA0CF3B1F800C00CEA03069E42D2
:100CD00021D183004FF00F0C0CFA03F7BC4305FA47
:100CE00003FC4CEA040491F803C0BCF1280F05D1C1
:100CF00000F1080C08FA0CF8C2F8148091F803C04F
:100D0000BCF1480F07D100F1080C4FF0010808FAB8
:100D10000CF8C2F81080401C0828CED35460BDE8FF
:100D2000F0814FF6FF710180022181700421C170B2
:100D300070470246002093680B400BB1012000E091
:100D4000002070470146886880B270470246002044
:100D5000D3680B400BB1012000E000207047014632
:100D6000C86880B2704701617047416170470AB13D
:100D7000016100E041617047C16070474FF480320B
:100D80000A43826181618261826982697047024699
:100D90000020434B18684FF68073184040EA021059
:100DA00008433F4B186070473E49C8617047F0B533
:100DB0000A46002300240021002500F00046B6F179
:100DC000004F02D1364EF16901E0354E7168C0F333
:100DD000034583B200F44016B6F5401F08D121F058
:100DE00070612F4E766826F070662D4F7E6012E09F
:100DF00000F48016B6F5801F06D1032606FA05F426
:100E0000A14341F0706106E0460D360103FA06F693
:100E1000B14341F0706122B1460D360103FA06F686
:100E2000314300F00046B6F1004F02D11C4EF16193
:100E300001E01B4E7160F0BD30B500228B071C0F26
:100E40000F2303FA04F2164B08338C1053F82430A6
:100E50009343134C08348D1044F8253023468C10EE
:100E600053F824308C07240F00FA04F423430C4C6D
:100E700008348D1044F8253030BD0A49DC31086053
:100E80007047000000080140000C014000100140C4
:100E90000014014000180140001C014000200140E6
:100EA000000001400000204231490143314A1160F5
:100EB000704770B5002100230F22C47804B32D4C75
:100EC000246804F4E064C4F5E064210AC1F1040379
:100ED000CA40447804FA03F184781440214309019C
:100EE000254C0678A155047804F01F050124AC4078
:100EF00005786D11AD0005F1E025C5F8004109E068
:100F0000047804F01F050124AC401C4D06787611CE
:100F100045F8264070BD1A4A0A400243154B1B1F74
:100F20001A60704739B1134A121D12680243114BFF
:100F30001B1D1A6006E00F4A121D126882430D4BFA
:100F40001B1D1A607047042808D14FF0E021096981
:100F500041F004014FF0E022116107E04FF0E02181
:100F6000096921F004014FF0E0221161704700008F
:100F70000000FA050CED00E000E400E080E100E094
:100F800080FFFF1F01460020FE4A106800F0380075
:100F9000084310607047FB49096821F00801F94ACD
:100FA000116011460968014311607047F5490968ED
:100FB00021F01001F34A11601146096801431160E4
:100FC0007047F148EF494860F04848607047EE4884
:100FD000EC494860ED4848607047EA48006940F0D5
:100FE0008000E84908617047E648006940F08000E9
:100FF000E449086170470420E249C96801F0010131
:1010000009B101200EE0DF49C96801F0040109B10E
:10101000022007E0DB49C96801F0100109B1032093
:1010200000E00420704700B502460423FFF7E3FF09
:10103000034603E0FFF7DFFF0346521E012B01D1F9
:10104000002AF7D102B90523184600BD30B5044681
:1010500004254FF43020FFF7E6FF0546042D17D195
:10106000C848006940F00200C6490861084644616A
:10107000006940F0400008614FF43020FFF7D3FFD3
:101080000546C048006941F6FD710840BD49086148
:10109000284630BD10B504244FF43020FFF7C3FFBD
:1010A0000446042C16D1B748006940F00400B54945
:1010B00008610846006940F0400008614FF43020A4
:1010C000FFF7B1FF0446AF48006941F6FB710840E5
:1010D000AC490861204610BD00B502460423FFF765
:1010E0008AFF034603E0FFF786FF0346521E012BEB
:1010F00001D1002AF7D102B90523184600BD10B569
:1011000004244FF43020FFF7E7FF0446042C16D1E7
:101110009C48006940F004009A490861084600694B
:1011200040F0400008614FF43020FFF7D5FF04463F
:101130009448006941F6FB710840924908612046D5
:1011400010BD00208F49C96901F0020109B10120D9
:1011500000E00020704730B5A5250424FFF7F1FF1B
:1011600000B100254FF43020FFF75DFF0446042C4A
:101170003AD1854883498860844888600846006978
:1011800040F0200008610846006940F04000086116
:101190004FF43020FFF747FF0446042C1BD1794859
:1011A000006941F6DF710840764908610846006928
:1011B00040F01000086176480580E002FFF733FF39
:1011C0000446052C10D06F48006941F6EF710840C5
:1011D0006C49086108E0052C06D06A48006941F6B0
:1011E000EF71084067490861204630BD78B5064672
:1011F0000C46042500200090E802FFF714FF054686
:10120000042D24D15F48006940F001005D49086168
:101210003480E802FFF707FF0546042D10D1B01C0B
:101220000090200C00990880E802FFF7FCFE0546BC
:101230005448006941F6FE7108405249086106E0D1
:101240005048006941F6FE7108404E490861284641
:1012500078BD70B504460D460426F002FFF7E3FEA4
:101260000646042E11D14748006940F00100454967
:1012700008612580F002FFF7D6FE06464148006966
:1012800041F6FE7108403F490861304670BD70B5B7
:1012900005460E460424E002FFF7C5FE0446042C72
:1012A00017D139483749886038488860084600694E
:1012B00040F0100008612E80E002FFF7B4FE044603
:1012C000052C06D02F48006941F6EF7108402D49E2
:1012D0000861204670BD2DE9F04304464FF6FF76C5
:1012E0003746B046B1460425E443E6B2C4F30727C7
:1012F000C4F307484FEA1469E802FFF794FE054675
:10130000042D49D120481F4988602048886008463C
:10131000006940F010000861FF2E06D01C4808301C
:101320000680E802FFF77FFE0546042D08D1FF2F57
:1013300006D017480A300780E802FFF774FE05461A
:10134000042D0AD1B8F1FF0F07D011480C30A0F8D6
:101350000080E802FFF767FE0546042D0AD1B9F1C7
:10136000FF0F07D00A480E30A0F80090E802FFF700
:101370005AFE0546052D0FD00248006941F6EF716F
:10138000084007E00020024023016745AB89EFCD0C
:1013900000F8FF1F664908612846BDE8F08330B5B4
:1013A000054604244FF43020FFF73DFE0446042C8C
:1013B00041D160485E4988605F488860084600699E
:1013C00040F0200008610846006940F040000861D4
:1013D0004FF43020FFF727FE0446042C22D1544856
:1013E000006941F6DF71084051490861084600690B
:1013F00040F0100008611DB100205049088002E053
:10140000A5204E4908804FF43020FFF70CFE04461B
:10141000052C10D04648006941F6EF710840444958
:10142000086108E0052C06D04148006941F6DF71EB
:1014300008403F490861204630BDF0B505460E46DC
:10144000174604243B483A4988603B488860E002DC
:10145000FFF7E9FD0446042C19D13548006940F036
:1014600010003349086147F0F800304328433349FE
:10147000891C0880E002FFF7D6FD0446052C06D043
:101480002B48006941F6EF71084029490861204660
:10149000F0BD2748C069800870472548006A70473A
:1014A00000202349096801F0200109B1012000E072
:1014B0000020704729B11E4A126902431C4B1A6171
:1014C00004E01B4A12698243194B1A6170470146B6
:1014D0000020012908D1164AD26902F001020AB19E
:1014E000012008E0002006E0114AD2680A400AB153
:1014F000012000E0002070470D49C86070470420BB
:101500000B49C96801F0010109B101200EE0084949
:10151000C96801F0040109B1022007E00449C96863
:1015200001F0100109B1032000E004207047000021
:101530000020024023016745AB89EFCD00F8FF1F73
:1015400010B50446FE48844208D10121C014FFF7BB
:10155000ACF80021E014FFF7A8F8C4E0B4F1804F24
:1015600008D101210846FFF7ADF800210120FFF75F
:10157000A9F8B8E0F348844208D101210220FFF71E
:10158000A1F800210220FFF79DF8ACE0EE4884426C
:1015900008D101210420FFF795F800210420FFF76E
:1015A00091F8A0E0E948844208D101210820FFF722
:1015B00089F800210820FFF785F894E0E448844288
:1015C00008D101211020FFF77DF800211020FFF73E
:1015D00079F888E0DF48844208D101212020FFF714
:1015E00071F800212020FFF76DF87CE0DA48844292
:1015F00008D101214014FFF758F800216014FFF7CB
:1016000054F870E0D548844209D10121C804FFF79D
:101610004CF800214FF40020FFF747F863E0D04872
:10162000844209D101210805FFF73FF800214FF45A
:101630008010FFF73AF856E0CA48844209D10121E8
:101640004805FFF732F800214FF40010FFF72DF89E
:1016500049E0C548844208D101214020FFF732F813
:1016600000214020FFF72EF83DE0C048844208D119
:1016700001218020FFF726F800218020FFF722F8C3
:1016800031E0BB48844208D101218015FFF71AF8E8
:101690000021A015FFF716F825E0B648844209D1CD
:1016A00001210804FFF701F800214FF48030FEF714
:1016B000FCFF18E0B048844209D101214804FEF73C
:1016C000F4FF00214FF40030FEF7EFFF0BE0AB48D2
:1016D000844208D101218804FEF7E7FF00214FF47E
:1016E0008020FEF7E2FF10BD00220288944B984252
:1016F0000ED0994B98420BD0B0F1804F08D0914B4F
:10170000984205D0904B984202D0904B984204D119
:101710004FF68F731A404B881A438D4B984207D06F
:101720008C4B984204D04FF6FF431A40CB881A43A3
:1017300002808B8883850B880385814B98420BD070
:10174000854B984208D08B4B984205D08A4B9842E3
:1017500002D08A4B984201D10B7A038601238382FF
:10176000704770B5002400220023058C4FF6FE76EA
:1017700035400584028C8388048B4FF68F752C408E
:10178000B51E2C400D882C43751E2A400D892A4316
:101790004D882A436A4DA8420BD06F4DA84208D00D
:1017A000744DA84205D0744DA84202D0734DA84292
:1017B00013D14FF6F7752A404D892A434FF6FB7532
:1017C0002A408D882A434FF6FF652B404FF6FF5580
:1017D0002B408D892B43CD892B4383800483CD8877
:1017E0008586028470BD70B5002400220023058C1C
:1017F0004FF6EF7635400584028C8388048B48F6DB
:10180000FF752C404FF6FF452C400D884FF6FF76B4
:1018100006EA05252C434FF6DF752A400D8906EAB6
:1018200005152A434D8806EA05152A43444DA8426A
:1018300002D0494DA8421DD14FF67F752A404D89EF
:101840004FF6FF7606EA05152A434FF6BF752A4084
:101850008D8806EA05152A434FF6FF352B404FF2D7
:10186000FF752B408D8906EA85052B43CD8906EA55
:1018700085052B4383800483CD880587028470BD52
:1018800070B5002400220023058C4FF6FF6635401A
:101890000584028C8388848B4FF68F752C404FF61D
:1018A000FC752C400D882C434FF6FF552A400D89BE
:1018B0004FF6FF7606EA05252A434D8806EA0525F8
:1018C0002A431F4DA84202D0234DA8421DD14FF2FA
:1018D000FF752A404D894FF6FF7606EA05252A4313
:1018E0004FF6FF352A408D8806EA05252A434EF635
:1018F000FF752B404DF6FF752B408D8906EA0515C7
:101900002B43CD8906EA05152B4383808483CD883C
:101910008587028470BD70B5002200230024058CE9
:101920004EF6FF7635400584038C8488828B48F61A
:10193000FF752A404FF6FF452A400D8820E0000041
:10194000002C01400004004000080040000C004052
:10195000001000400014004000340140004C0140E1
:10196000005001400054014000180040001C00409D
:101970000020004000400140004401400048014078
:101980004FF6FF7606EA05252A434DF6FF752B40F4
:101990000D8906EA05352B434D8806EA05352B43AC
:1019A000FA4DA84202D0FA4DA84208D14BF6FF7575
:1019B0002C408D894FF6FF7606EA85152C438480EE
:1019C0008283CD88A0F84050038470BD828B4FF293
:1019D000FF331A408283828B4FF6FF7303EA0123A1
:1019E0001A4382837047F0B50C4615460022002149
:1019F0000026078C4EF6FF7C07EA0C070784828BD3
:101A0000018C4FF6FF7707EA043640F6FF473A406D
:101A10004FF6FF7707EA05273A434FF6FF7707EAC5
:101A200003373A43D94FB8420ED0D94FB8420BD002
:101A3000B0F1804F08D0D74FB84205D0D64FB8424A
:101A400002D0D64FB84206D14DF6FF77394046F462
:101A50008057394305E047F6FF57394044F4805733
:101A6000394382830184F0BD828B4FF6F3731A40B1
:101A70008283828B0A4382837047F0B50C461546F9
:101A8000002200210026078C4FF6FF6C07EA0C07A6
:101A90000784828B018C4FF6FF7707EA04264FF606
:101AA0000C773A404FF6FF7707EA03172F433A4384
:101AB000B64FB8420ED0B64FB8420BD0B0F1804FFF
:101AC00008D0B44FB84205D0B34FB84202D0B34F9C
:101AD000B84206D14FF6FF57394046F48077394374
:101AE00005E04FF2FF57394044F480773943828351
:101AF0000184F0BD028B4FF2FF331A400283028B48
:101B00004FF6FF7303EA01231A4302837047F0B5CF
:101B10000C461546002200210026078C4FF6EF7C6C
:101B200007EA0C070784028B018C4FF6FF7707EA60
:101B3000041640F6FF473A404FF6FF7707EA0337AF
:101B40003A434FF6FF7707EA05273A438F4FB842EB
:101B50000ED08F4FB8420BD0B0F1804F08D08D4FD0
:101B6000B84205D08C4FB84202D08C4FB84206D153
:101B70004FF6DF77394046F01007394305E04FF65E
:101B80005F77394044F01007394302830184F0BD88
:101B9000028B4FF6F3731A400283028B0A430283CF
:101BA0007047F0B50C46154600220021068C4FF612
:101BB000FE773E400684028B018C4FF60C76324055
:101BC0007E1C06EA03162E433243704EB0420ED0FE
:101BD0006F4EB0420BD0B0F1804F08D06D4EB04286
:101BE00005D06D4EB04202D06C4EB04206D14FF6D9
:101BF000FD76314044F00106314305E04FF6F576BD
:101C0000314044F00106314302830184F0BD70B5D8
:101C100005460C465D4885420ED05D4885420BD096
:101C2000B5F1804F08D05B48854205D05A488542BF
:101C300002D05A48854200D100E000BF208850B948
:101C40002389A28861882846FFF7ABFFE1882846F0
:101C5000FFF79EFF25E0208804280AD12389A28867
:101C600061882846FFF753FFE1882846FFF742FFC7
:101C700017E0208808280AD12389A288618828468D
:101C8000FFF7FBFEE1882846FFF7EEFE09E0238917
:101C9000A28861882846FFF7A6FEE1882846FFF75C
:101CA00095FE70BD2DE9F04105460C460026012742
:101CB000608808B9022600E00026A088012801D12A
:101CC000022700E001272088A0B92389A288618823
:101CD0002846FFF766FFE1882846FFF759FF23896A
:101CE0003A4631462846FFF712FFE1882846FFF7BB
:101CF00001FF13E02389A28861882846FFF707FFC8
:101D0000E1882846FFF7F6FE23893A463146284601
:101D1000FFF747FFE1882846FFF73AFFBDE8F0816B
:101D20000A884B881A438B881A43CB881A430B893D
:101D30001A434B891A438B891A43A0F844207047F1
:101D40004FF6FF71818000210180C18041800172C6
:101D500070470021018041808180C18001814181E3
:101D60008181C181704700210180418001218180F2
:101D70000021C18001817047002101804180818064
:101D8000C18001814181818170470000002C0140A8
:101D9000003401400004004000080040000C0040F6
:101DA00021B1028842F00102028004E002884FF66D
:101DB000FE731A400280704731B1B0F8442042F4FB
:101DC0000042A0F8442005E0B0F84420C2F30E021F
:101DD000A0F8442070471AB183890B43838102E045
:101DE00083898B43838170478182704741EA020374
:101DF000A0F8483070471AB183890B43838102E011
:101E000083898B438381704701894FF6F8721140B3
:101E1000018170470A46002101894FF68F731940EE
:101E200011430181704730B504460D4629462046CE
:101E3000FFF7F0FF208940F00700208130BD2DE939
:101E4000F04104460D4616461F46602D06D13B461E
:101E5000012231462046FFF75AFE05E03B460122AB
:101E600031462046FFF79DFE29462046FFF7D2FF68
:101E7000208940F007002081BDE8F08130B50C4694
:101E800000210189C9B24FF6FF7505EA0325154304
:101E900025432943018130BD2DE9F04105460E4619
:101EA00017469846002443463A4631462846FFF7EF
:101EB000E5FF2C894FF6F870044044F007044FF614
:101EC0008F70044044F070042C81BDE8F081F0B5BF
:101ED00004460D4616461F463B46324629462046D6
:101EE000FFF7CCFF208940F480402081F0BD0185C0
:101EF000828270470A46002101884FF68F7319408D
:101F0000114301807047F0B50C4615461E4600216E
:101F1000002200230189028B038C4FF6F8773940A9
:101F200021434FF6FC473A4040F201173A434FF63F
:101F3000DD773B404FF6FF7707EA06172F433B4319
:101F4000018102830384F0BD0A460021018B4FF614
:101F50008F7319401143018370470A460021018B9A
:101F600048F6FF7319404FF6FF7303EA0223194343
:101F7000018370470A460021818B4FF68F73194009
:101F80001143818370470A460021818B48F6FF7315
:101F900019404FF6FF7303EA022319438183704708
:101FA00021B1028842F08002028004E002884FF6EC
:101FB0007F731A400280704721B1828842F0040288
:101FC000828004E082884FF6FB731A40828070475B
:101FD00021B1828842F00802828004E082884FF6B4
:101FE000F7731A408280704721B1828842F0010263
:101FF000828004E082884FF6FE731A408280704728
:102000000A460021018B4FF6F773194011430183F3
:1020100070470A460021018B4FF2FF7319404FF6BB
:10202000FF7303EA02231943018370470A46002124
:10203000818B4FF6F77319401143818370470A462D
:102040000021818B4FF2FF7319404FF6FF7303EAB3
:1020500002231943818370470A460021018B4FF602
:10206000FB7319401143018370470A460021018B1D
:102070004FF6FF3319404FF6FF7303EA022319436B
:10208000018370470A460021818B4FF6FB7319408C
:102090001143818370470A460021818B4FF6FF333D
:1020A00019404FF6FF7303EA0223194381837047F7
:1020B0000A460021018B4FF67F73194011430183BB
:1020C00070470A460021018BC1F30E014FF6FF73E2
:1020D00003EA02231943018370470A460021818BDA
:1020E0004FF67F7319401143818370470A460021E0
:1020F000818BC1F30E014FF6FF7303EA02231943EC
:10210000818370470A460021018C4FF6FD73194008
:102110001143018470470A460021018C4FF6F77382
:1021200019401143018470470A460021018C4FF683
:10213000DF7319404FF6FF7303EA0213194301845A
:1021400070470A460021018C4FF67F7319404FF605
:10215000FF7303EA02131943018470470A46002102
:10216000018C4FF6FF5319404FF6FF7303EA022329
:102170001943018470470A460021018C4FF2FF7316
:1021800019404FF6FF7303EA022319430184704795
:102190000A460021018C4DF6FF7319404FF6FF737C
:1021A00003EA023319430184704730B50023012448
:1021B0008C40A3B2048C9C430484048C02FA01F585
:1021C000ADB22C43048430BD30B5002304248C40D0
:1021D000A3B2048C9C430484048C02FA01F5ADB2D2
:1021E0002C43048430BD70B50346002000241846FB
:1021F000183001258D40ACB21D8CA5431D8409B15A
:10220000082909D100EB6100056825F0700505601B
:102210000568154305600EE00D1FC5F34E05284403
:10222000056825F4E045056005684FF6FF7606EA87
:1022300002263543056070BD21B1028842F00202DA
:10224000028004E002884FF6FD731A400280704756
:1022500021B1028842F00402028004E002884FF6B5
:10226000FB731A400280704721B1828842F08002DD
:10227000828004E082884FF67F731A408280704724
:1022800002884FF6F7731A40028002880A430280E0
:10229000704782884FF68F731A40828082880A4383
:1022A0008280704702894FF6F8731A4002810289D2
:1022B0000A430281704702894FF67F731A400281F8
:1022C00002890A4302817047818470478185704783
:1022D000818670470187704781877047A0F840105A
:1022E000704702884FF6FF431A40028002880A4373
:1022F000028070470146888E70470146088F7047FC
:102300000146888F70470146B1F84000704701468A
:10231000888C70470146088D704702460020138A5A
:102320000B400BB1012000E000207047CA4302823D
:10233000704730B50246002000230024158A05EAC4
:102340000103958905EA010413B10CB1012000E0F5
:10235000002030BDCA43028270470000002044497B
:102360000860091D0860091D0860091D08604148D2
:102370003F4914310860704700213D498279002AA5
:102380003AD00A46126803689A430B461A600A1D3F
:10239000126803689A430B1D1A60027911440A6897
:1023A00003681A430A60324A0832126803689A4383
:1023B0002F4B08331A601A1D126803689A432C4B7E
:1023C0000C331A604279102A0ED11A1F1268036862
:1023D0001A43274B08331A601A1D126803681A4300
:1023E000234B0C331A600DE02149427911440A68ED
:1023F00003681A430A6005E0027911440A68036819
:102400009A430A6070470021016001710C214171FB
:102410000021817170471649103109680143144A3F
:1024200010321160704701460020114A14321268C0
:102430000A400AB1012000E0002070470C49143125
:1024400008607047014600200022094B1B6803EA20
:102450000102074B14331B680B4013B10AB1012072
:1024600000E0002070470249143108607047000006
:1024700000040140FFFF0F00704700BFFEE700BFF0
:10248000FEE700BFFEE700BFFEE7704770477047FA
:102490007047704770470000FB488078FB49087020
:1024A000F94800794870F84880798870F648007AD1
:1024B000C870F548807A0871F348007B4871F2488B
:1024C000807B8871F048007CC871704700F0010182
:1024D00021B14FF40041EE4A116004E04FF4004195
:1024E000EB4A121D116000F0020121B14FF480513E
:1024F000E74A116004E04FF48051E54A121D116073
:1025000000F0040121B14FF40061E14A116004E0E0
:102510004FF40061DE4A121D116000F0080121B184
:102520004FF48061DA4A116004E04FF48061D84AC8
:10253000121D116000F0100121B14FF40051D54A75
:10254000116103E04FF40051D24A516100F02001C3
:1025500021B14FF48041CF4A116103E04FF4804133
:10256000CC4A516100F0400121B14FF40041C94A09
:10257000116103E04FF40041C64A516100F080014F
:1025800019B10221C44A116003E00221C24A121D9E
:10259000116000F4807119B10121BF4A116003E09C
:1025A0000121BD4A121D1160704710B5044604F0A8
:1025B000010028B100224021B848FEF7D8FB04E012
:1025C00001224021B548FEF7D2FB04F0020030B1F1
:1025D00000224FF48071B148FEF7C9FB04E00122EC
:1025E0001102AE48FEF7C3FB04F0040028B100223C
:1025F0000821AA48FEF7BBFB04E001220821A748F6
:10260000FEF7B5FB04F0080030B100224FF4007172
:10261000A248FEF7ACFB04E0012251029F48FEF7FE
:10262000A6FB04F0100028B1002280219B48FEF791
:102630009EFB04E0012280219848FEF798FB04F0FD
:10264000200028B1002220219448FEF790FB04E0EE
:10265000012220219148FEF78AFB04F0400028B1B6
:10266000002210218D48FEF782FB04E00122102198
:102670008A48FEF77CFB10BD10B58448884909786C
:10268000405C8849087088488549097830F811000D
:10269000844948600020FFF788FF82494868FFF7B7
:1026A00015FF80490878FFF780FF7E494868FFF7EB
:1026B0000DFF7B4801780078401C794A107008298A
:1026C00002DB00201146087010BD10B50446012C35
:1026D00025D176480078332810D16B48007E6B49AD
:1026E0000870694890F822004870674890F82E00FA
:1026F0008870654890F84E00C87037E06248007EE8
:1027000062490870604890F8220048705E4890F86E
:102710002E0088705C4890F82C00C87026E0022CCF
:1027200011D1594890F82A0058490870564890F835
:1027300036004870544890F824008870524890F849
:102740003600C87012E0032C10D14F4890F82A00D0
:102750004E4908704C4890F8280048704A4890F854
:1027600038008870484890F82C00C870464890F8A7
:102770002C0046490871444890F82C0048714248A2
:1027800090F82C008871404890F82C00C871FFF731
:1027900073FF10BD0146002004E00A22B1FBF2F1F4
:1027A000421CD0B20029F8D1704770B504460B46E0
:1027B0001846FFF7EFFF05462046FFF7EBFF0646FA
:1027C0000A2093FBF0F100FB11302F4911F81000A3
:1027D0002E490870022D0DDB0A2093FBF0F00A2130
:1027E00090FBF1F201FB1200274911F81000274974
:1027F000487004E0244890F82C0024494870032DC8
:102800000DDB642093FBF0F00A2190FBF1F201FB59
:1028100012001D4911F810001C49887004E01A4884
:1028200090F82C0019498870042D0EDB4FF47A7053
:1028300093FBF0F00A2190FBF1F201FB1200124928
:1028400011F810001149C87004E00F4890F82C00EE
:102850000E49C8700A2094FBF0F100FB11400A49B0
:1028600011F8100009490871022E21DB0A2094FB9F
:10287000F0F00A2190FBF1F201FB1200024911F87D
:1028800010000249487118E0E8560008D400002002
:102890001008014000100140101C0140000C0140D4
:1028A0003200002028000020D656000880000020BA
:1028B000FB4890F82C00FB494871032E0DDB642087
:1028C00094FBF0F00A2190FBF1F201FB1200F449B5
:1028D00011F81000F349887104E0F14890F82C00D9
:1028E000F0498871042E0EDB4FF47A7094FBF0F0FF
:1028F0000A2190FBF1F201FB1200E94911F81000E6
:10290000E849C87104E0E64890F82C00E549C87130
:1029100070BDE34991F82C10E24A1170E04991F83A
:102920002C105170DE4991F82C109170DC4991F80F
:102930002C10D17080B1DA4991F824101171D84966
:1029400091F822105171D64991F820109171D44913
:1029500091F82E10D1710FE0D14991F82410D14A8D
:102960001171CF4991F822105171CD4991F8201081
:102970009171CB49897ED171704710B503461846D5
:10298000FFF708FF04460A2093FBF0F100FB11302B
:10299000C34911F81000C3490870022C0DDB0A204E
:1029A00093FBF0F00A2190FBF1F201FB1200BC490D
:1029B00011F81000BB49487004E0B94890F82C00A9
:1029C000B8494870032C0DDB642093FBF0F00A211A
:1029D00090FBF1F201FB1200B14911F81000B1496E
:1029E000887004E0AE4890F82C00AE498870042C42
:1029F0000EDB4FF47A7093FBF0F00A2190FBF1F2BA
:102A000001FB1200A64911F81000A649C87004E0A5
:102A1000A34890F82C00A349C870A14890F82C0056
:102A2000A04908719E4890F8260048719C4890F88B
:102A3000300088719A48007EC87110BD10B50346F9
:102A40001846FFF7A7FE04460A20B3FBF0F100FB8F
:102A50001130934911F8100092490870022C0DDBD7
:102A60000A20B3FBF0F00A21B0FBF1F201FB1200E7
:102A70008B4911F810008B49487004E0884890F8A1
:102A80002C0088494870032C0DDB6420B3FBF0F068
:102A90000A21B0FBF1F201FB1200814911F810008C
:102AA0008049887004E07E4890F82C007D49887049
:102AB000042C0EDB4FF47A70B3FBF0F00A21B0FB6C
:102AC000F1F201FB1200764911F810007549C87047
:102AD00004E0734890F82C007249C870704890F870
:102AE0002C00704908716E4890F8260048716C48B7
:102AF00090F8280088716A48007EC87110BD684847
:102B000090F8460067490870654890F8460048709C
:102B1000634890F846008870614890F84600C87095
:102B20006148007888B15E48807F08715C48807F8A
:102B300048715B4890F822008871594890F82A0043
:102B4000C87100205849087013E0554890F82C00CF
:102B500054490871524890F82C004871504890F838
:102B60002C0088714E4890F82C00C87101204E4905
:102B7000087070474A4890F846004A49087048482B
:102B800090F846004870464890F8460088704448DF
:102B900090F84600C8704548007880B14048807E73
:102BA00008713F48807F48713D48807F88713C486C
:102BB00090F82200C87100203C49087013E03848A2
:102BC00090F82C0037490871354890F82C0048716E
:102BD000334890F82C008871314890F82C00C87167
:102BE000012032490870704730B503460D4618463B
:102BF000FFF7D0FD0446002D72D02D480078002844
:102C000058D00A2093FBF0F100FB1130244911F851
:102C1000100024490870022C0DDB0A2093FBF0F011
:102C20000A2190FBF1F201FB12001D4911F810007E
:102C30001C49487004E01A4890F82C001949487063
:102C4000032C0DDB642093FBF0F00A2190FBF1F2E2
:102C500001FB1200124911F810001249887004E0BB
:102C60000F4890F82C000F498870042C0EDB4FF4AD
:102C70007A7093FBF0F00A2190FBF1F201FB120055
:102C8000074911F810000749C87004E0044890F89B
:102C90002C000449C8700020054908706AE0000053
:102CA000E8560008D4000020380000203900002039
:102CB0003A000020F74890F82C00F7490870F548D2
:102CC00090F82C004870F34890F82C008870F14878
:102CD00090F82C00C8700120F04908704AE0FFE726
:102CE0000A2093FBF0F100FB1130EA4911F81000C3
:102CF000E9490870022C0DDB0A2093FBF0F00A2151
:102D000090FBF1F201FB1200E24911F81000E249D8
:102D1000487004E0DF4890F82C00DF494870032C2D
:102D20000DDB642093FBF0F00A2190FBF1F201FB34
:102D30001200D84911F81000D749887004E0D5482E
:102D400090F82C00D4498870042C0EDB4FF47A7074
:102D500093FBF0F00A2190FBF1F201FB1200CD4948
:102D600011F81000CC49C87004E0CA4890F82C0053
:102D7000C949C870C748807EC7490871C548807F67
:102D80004871C448807F8871C24890F82200C87199
:102D900030BDC04890F84600BF490870BD4890F863
:102DA00046004870BB4890F846008870B94890F8D3
:102DB0004600C870BA48007890B1B648807E087165
:102DC000B44890F820004871B24890F82400887107
:102DD000B04890F82200C8710020B149087013E093
:102DE000AC4890F82C00AC490871AA4890F82C0027
:102DF0004871A84890F82C008871A64890F82C00DB
:102E0000C8710120A6490870704730B503460D46C9
:102E10001846FFF7BFFC0446002D66D0A148007895
:102E200000284DD00A2093FBF0F100FB11309949A6
:102E300011F8100098490870022C0DDB0A2093FB52
:102E4000F0F00A2190FBF1F201FB1200914911F818
:102E500010009149487004E08E4890F82C008E498B
:102E60004870032C0DDB642093FBF0F00A2190FBEB
:102E7000F1F201FB1200874911F8100086498870B1
:102E800004E0844890F82C0083498870042C0EDB01
:102E90004FF47A7093FBF0F00A2190FBF1F201FB02
:102EA00012007C4911F810007B49C87004E0794891
:102EB00090F82C007849C87000207A4908705EE0CC
:102EC000744890F82C0074490870724890F82C00EF
:102ED0004870704890F82C0088706E4890F82C006C
:102EE000C87001206F49087049E00A2093FBF0F197
:102EF00000FB1130674911F8100067490870022C77
:102F00000DDB0A2093FBF0F00A2190FBF1F201FBAC
:102F10001200604911F810005F49487004E05D48F4
:102F200090F82C005C494870032C0DDB642093FB67
:102F3000F0F00A2190FBF1F201FB1200554911F863
:102F400010005549887004E0524890F82C0052490E
:102F50008870042C0EDB4FF47A7093FBF0F00A219A
:102F600090FBF1F201FB12004A4911F810004A49A6
:102F7000C87004E0474890F82C004749C87045489D
:102F8000807E45490871434890F8200048714148C7
:102F900090F8240088713F4890F82200C87130BD35
:102FA0003C4890F846003C4908703A4890F8460082
:102FB0004870384890F846008870364890F84600C7
:102FC000C8703948007898B1324890F82A000871E2
:102FD000304890F8220048712E4890F834008871EB
:102FE0002C4890F82800C87100202F49087013E081
:102FF000284890F82C0028490871264890F82C00A1
:103000004871244890F82C008871224890F82C00D0
:10301000C871012024490870704730B503460D4639
:103020001846FFF7B7FB0446002D76D01F480078FE
:1030300000285CD00A2093FBF0F100FB1130154909
:1030400011F8100014490870022C0DDB0A2093FBC4
:10305000F0F00A2190FBF1F201FB12000D4911F88A
:1030600010000D49487004E00A4890F82C000A4905
:103070004870032C1CDB642093FBF0F00A2190FBCA
:10308000F1F201FB1200034911F8100002498870A7
:1030900013E00000E8560008D40000203A000020A9
:1030A0003B0000203C0000203D0000203E000020AE
:1030B000FA4890F82C00FA498870042C0EDB4FF483
:1030C0007A7093FBF0F00A2190FBF1F201FB120001
:1030D000F24911F81000F249C87004E0EF4890F886
:1030E0002C00EF49C8700020EE4908705FE0EB4803
:1030F00090F82C00EA490870E84890F82C004870D5
:10310000E64890F82C008870E44890F82C00C870CD
:103110000120E44908704AE0FFE70A2093FBF0F140
:1031200000FB1130DD4911F81000DD490870022C58
:103130000DDB0A2093FBF0F00A2190FBF1F201FB7A
:103140001200D64911F81000D549487004E0D34860
:1031500090F82C00D2494870032C0DDB642093FBBF
:10316000F0F00A2190FBF1F201FB1200CB4911F8BB
:103170001000CB49887004E0C84890F82C00C8497A
:103180008870042C0EDB4FF47A7093FBF0F00A2168
:1031900090FBF1F201FB1200C04911F81000C04988
:1031A000C87004E0BD4890F82C00BD49C870BB4809
:1031B00090F82A00BA490871B84890F8220048717E
:1031C000B64890F834008871B44890F82800C87167
:1031D00030BDB24890F84600B1490870AF4890F849
:1031E00046004870AD4890F846008870AB4890F8AB
:1031F0004600C870AC48007888B1A84890F82C0008
:103200000871A64890F82E004871A448007F887184
:10321000A248807EC8710020A349087013E09F482F
:1032200090F82C009E4908719C4890F82C00487139
:103230009A4890F82C008871984890F82C00C87132
:10324000012099490870704730B503460D4618466D
:10325000FFF7A0FA0446002D66D0944800780028B5
:103260004DD00A2093FBF0F100FB11308B4911F88F
:1032700010008B490870022C0DDB0A2093FBF0F044
:103280000A2190FBF1F201FB1200844911F81000B1
:103290008349487004E0814890F82C0080494870C8
:1032A000032C0DDB642093FBF0F00A2190FBF1F27C
:1032B00001FB1200794911F810007949887004E087
:1032C000764890F82C0076498870042C0EDB4FF479
:1032D0007A7093FBF0F00A2190FBF1F201FB1200EF
:1032E0006E4911F810006E49C87004E06B4890F800
:1032F0002C006B49C87000206C4908705EE067487C
:1033000090F82C0066490870644890F82C004870CA
:10331000624890F82C008870604890F82C00C870C3
:1033200001206249087049E00A2093FBF0F100FB9C
:1033300011305A4911F8100059490870022C0DDB60
:103340000A2093FBF0F00A2190FBF1F201FB12003E
:10335000524911F810005249487004E04F4890F863
:103360002C004F494870032C0DDB642093FBF0F0D8
:103370000A2190FBF1F201FB1200484911F81000FC
:103380004749887004E0454890F82C00444988700B
:10339000042C0EDB4FF47A7093FBF0F00A2190FBC3
:1033A000F1F201FB12003D4911F810003C49C870D0
:1033B00004E03A4890F82C003949C870374890F832
:1033C0002C0037490871354890F82E004871334871
:1033D000007F88713148807EC87130BD30B50446A9
:1033E0000B461846FFF7D6F90546012C3AD12B4873
:1033F00090F82C002A490870284890F82C00487052
:10340000264890F82C008870244890F82C00C8704A
:103410002748007888B12148807808711F4890F8C3
:103420002A0048711D48007F88711C4890F82800C8
:10343000C87100201E4908709BE0184890F82C00C5
:1034400017490871154890F82C004871134890F8F6
:103450002C008871114890F82C00C8710120144983
:10346000087086E0022C65D10A20B3FBF0F100FB66
:1034700011300A4911F8100009490870022D19DBB2
:103480000A20B3FBF0F00A21B0FBF1F201FB1200BD
:10349000024911F810000249487010E0E85600088F
:1034A000D40000203E0000203F000020400000200B
:1034B00041000020D04890F82C00D0494870032DDE
:1034C0000DDB6420B3FBF0F00A21B0FBF1F201FB4D
:1034D0001200C94911F81000C849887004E0C648B4
:1034E00090F82C00C5498870042D0EDB4FF47A70DB
:1034F000B3FBF0F00A21B0FBF1F201FB1200BE4970
:1035000011F81000BD49C87004E0BB4890F82C00C9
:10351000BA49C870B8488078B8490871B64890F878
:103520002A004871B448007F8871B34890F8280099
:10353000C8711EE0B04890F82C00B0490870AE4841
:1035400090F82C004870AC4890F82C008870AA487D
:1035500090F82C00C870A84880780871A64890F8A8
:103560002A004871A448007F8871A34890F8280079
:10357000C87130BD70B504460E4613461846FFF7B5
:1035800009F90546012C3AD19B4890F82C009B493B
:103590000870994890F82C004870974890F82C00D3
:1035A0008870954890F82C00C8709548007888B1CC
:1035B000914800790871904890F82A0048718E4827
:1035C000007F88718C4890F82800C87100208C49D1
:1035D00008708FE0884890F82C0088490871864868
:1035E00090F82C004871844890F82C00887182482B
:1035F00090F82C00C8710120814908707AE0022CF3
:1036000059D10A20B3FBF0F100FB11307A4911F8CF
:1036100010007A490870022D0DDB0A20B3FBF0F090
:103620000A21B0FBF1F201FB1200734911F81000FE
:103630007249487004E0704890F82C006F49487057
:10364000032D0DDB6420B3FBF0F00A21B0FBF1F297
:1036500001FB1200684911F810006849887004E005
:10366000654890F82C0065498870042D0EDB4FF4F6
:103670007A70B3FBF0F00A21B0FBF1F201FB12000B
:103680005D4911F810005D49C87004E05A4890F88F
:103690002C005A49C8705848007958490871564852
:1036A00090F82A0048715448007F8871524890F879
:1036B0002800C8711EE0504890F82C004F4908704F
:1036C0004D4890F82C0048704B4890F82C008870BA
:1036D000494890F82C00C87047480079087146485E
:1036E00090F82A0048714448007F8871424890F859
:1036F0002800C87170BD70B504460D464FF40071C6
:103700004048FDF716FB04465CB9012D09D13A4843
:1037100090F84200384991F844100843374908723C
:1037200026E0012C0AD14DB9334890F83C003249CB
:1037300091F83E1008433149087219E0012C12D16A
:1037400011D12D4890F83C002B4991F83E100843C8
:10375000294991F842100843274991F84410084339
:103760002649087204E0244890F82C002349087286
:1037700070BD214890F84C00204908701E4890F810
:103780004C0048701C4890F84C0088701A4890F81B
:103790004C00C8701848807E0871174890F82400C3
:1037A00048711548007F8871134890F84C00C87123
:1037B0007047114890F82A00104908700E4890F898
:1037C000360048700C4890F8240088700A4890F839
:1037D0003600C870084890F82C000871064890F828
:1037E0002C004871044890F82C008871024890F829
:1037F0002C00C87170477047E8560008D4000020BC
:10380000420000200008014008B59448944908602F
:10381000801488800D208871002048810861C8715B
:10382000152008771F2008726420486141F27070EB
:1038300088618A488B4908604FF4804088800D2059
:103840008871002048810861C871152008771F2001
:103850000872642048614FF4FA6088617F488249A9
:103860000860401488800D2088710020488108611C
:10387000C871152008771F200872642048614FF432
:10388000FA60886177488088898808437449898804
:103890000843ADF8000028208DF8030002208DF8C1
:1038A0000200704908686946FDF7B0F96E4908687A
:1038B0006946FDF7ABF96A4908686946FDF7A6F95C
:1038C00008BD81790D2917D18269016991420AD316
:1038D00021210172C17951BB002101614189491C3B
:1038E00009B2418123E02021017200210161418957
:1038F000491C09B241811AE081790B2908D12021A4
:103900000172002101614189491C09B241810EE027
:1039100081790C290BD182690169914207D3212158
:103920000172002101614189491C09B2418170473E
:1039300070B504460025A1882068FDF7FAF9054610
:10394000207F152805D1012D01D1012070BD002057
:10395000FCE700BFFAE710B54148FFF7E9FF01288F
:1039600007D13F480069401C3D4908610120C871EA
:1039700006E03B48FFF7DCFF10B900203849C8716A
:103980003748006930B13648C07918B93448FFF774
:1039900098FF0CE03248006931498969884206D9AC
:1039A0002F48C079012802D12D48FFF78AFF2D4802
:1039B000FFF7BEFF012807D12A480069401C2949AA
:1039C00008610120C87106E02648FFF7B1FF10B971
:1039D00000202449C8712348006930B12148C079CA
:1039E00018B92048FFF76DFF0CE01E4800691D491B
:1039F0008969884206D91B48C079012802D1194833
:103A0000FFF75FFF1848FFF793FF012807D116481B
:103A10000069401C144908610120C87106E0124881
:103A2000FFF786FF10B900200F49C8710E480069E2
:103A300030B10D48C07918B90B48FFF742FF0CE0D0
:103A40000948006907498969884206D90648C0794A
:103A5000012802D10448FFF734FF10BD000C0140DB
:103A6000E0000020000100202001002010B5FC48EB
:103A7000007800F0100038B1F948007820F010000C
:103A8000F7490870FFF78CFAF9E02220F549087031
:103A9000F548C079A0B9F548C07988B9F0480078F0
:103AA00000F01000C0B1EE48007820F01000EC49A2
:103AB0000870EC49B1F902000121FFF7AEFA0BE002
:103AC000E748007820F01000E5490870E549B1F9B1
:103AD00002000021FFF7A1FAE348B0F90A00E44927
:103AE0000978884211D0E048007A20280DD1DE48BC
:103AF000807ADF4908700020DB494881D948408836
:103B0000401C00B2D749488048E0D748C079012816
:103B100041D1D548007A21283DD10020D2494881A1
:103B20000846006941F2707188420ED2CE480069A1
:103B30001421B0FBF1F201FB1200F8B9C94840882A
:103B4000401C00B2C749488028E0C748006941F2DC
:103B50007071884213D9C4480069490088420ED266
:103B6000C14800690A21B0FBF1F201FB120028B93B
:103B7000BC484088401C00B2BA4948800EE0BA48B0
:103B8000007C00F0010048B9B6484088401C00B2F3
:103B9000B449488002E02020B3490872B348B0F924
:103BA0000A00B349097888420DD0B048007A20282D
:103BB00009D10020AD494881AA484088401E00B282
:103BC000A849488048E0A948C079012841D1A748C0
:103BD000007A21283DD10020A44948810846006987
:103BE00041F2707188420ED2A04800691421B0FBE6
:103BF000F1F201FB1200F8B99A484088401E00B269
:103C00009849488028E09948006941F270718842DB
:103C100013D996480069490088420ED2934800693A
:103C20000A21B0FBF1F201FB120028B98D4840884F
:103C3000401E00B28B4948800EE08C48007C00F0AA
:103C4000010048B987484088401E00B28549488035
:103C500002E02020854908728248B0F9020042F251
:103C60000F71884203DB08467E49488007E07D48A3
:103C7000B0F90200002802DC00207A4948807D4823
:103C8000007A202804D17B48408904283FF4FDAE07
:103C900010BD10B57248007800F0100038B17048BF
:103CA000007820F010006E490870FFF772F807E105
:103CB00021206C4908706C48C079A0B96B48C07964
:103CC00088B96748007800F01000C0B164480078F7
:103CD00020F01000624908706249B1F90200012128
:103CE000FFF793F80BE05E48007820F020005C4975
:103CF00008705C49B1F902000021FFF786F85A48C4
:103D0000B0F90A005C490978884211D05648007A17
:103D100020280DD15448807A574908700020524914
:103D2000488150484088401C00B24E49488048E0D5
:103D30004D48C079012841D14B48007A21283DD116
:103D40000020494948810846006941F27071884263
:103D50000ED2454800691421B0FBF1F201FB1200BC
:103D6000F8B940484088401C00B23E49488028E0ED
:103D70003D48006941F27071884213D93A480069A0
:103D8000490088420ED2384800690A21B0FBF1F29E
:103D900001FB120028B933484088401C00B2314969
:103DA00048800EE03048007C00F0010048B92D4802
:103DB0004088401C00B22B49488002E020202A495C
:103DC00008722A48B0F90A002B49097888420DD0B8
:103DD0002648007A202809D100202449488121481A
:103DE0004088401E00B21F49488056E01F48C079F5
:103DF00001284FD11D48007A21284BD100201B49B2
:103E000048810846006941F2707188420ED2174815
:103E100000691421B0FBF1F201FB1200F8B911485E
:103E20004088401E00B20F49488036E00F480069C4
:103E300041F27071884221D90C48006949008842DA
:103E40001CD20A4800690A21B0FBF1F201FB120002
:103E500028B904484088401E00B2024948801CE04E
:103E60008D000020480000200001002020010020DB
:103E700056000020E000002055000020FE48007C95
:103E800000F0010048B9FD484088401E00B2FB49DF
:103E9000488002E02020F8490872F848B0F9020092
:103EA00042F20F71884203DB0846F449488007E07C
:103EB000F248B0F90200002802DC0020EF494880F7
:103EC000EF48007A202804D1ED48408904283FF4C7
:103ED000EFAE10BD10B5EB48007800F0100038B11F
:103EE000E848007820F01000E6490870FEF742FE2E
:103EF000F9E02020E1490870E348C079A0B9DE4824
:103F0000C07988B9DF48007800F01000C0B1DD4802
:103F1000007820F01000DB490870D849B1F90200A0
:103F20000121FEF761FE0BE0D648007820F010007A
:103F3000D4490870D149B1F902000021FEF754FEBE
:103F4000D148B0F90A00D1490978884211D0CE4849
:103F5000007A20280DD1CC48807ACC490870002006
:103F6000C9494881C5484088401C00B2C3494880BF
:103F700048E0C548C079012841D1C348007A2128CA
:103F80003DD10020C04948810846006941F2707166
:103F900088420ED2BC4800691421B0FBF1F201FB4B
:103FA0001200F8B9B5484088401C00B2B3494880B7
:103FB00028E0B548006941F27071884213D9B248CF
:103FC0000069490088420ED2AF4800690A21B0FB5F
:103FD000F1F201FB120028B9A8484088401C00B249
:103FE000A64948800EE0A848007C00F0010048B9CE
:103FF000A2484088401C00B2A049488002E020202E
:10400000A14908729C48B0F90A00A0490978884281
:104010000DD09948007A202809D10020964948817E
:1040200096484088401E00B29449488048E0924833
:10403000C079012841D19048007A21283DD1002043
:104040008D4948810846006941F2707188420ED25C
:10405000894800691421B0FBF1F201FB1200F8B9A4
:1040600086484088401E00B28449488028E0824843
:10407000006941F27071884213D97F480069490094
:1040800088420ED27C4800690A21B0FBF1F201FBA4
:10409000120028B979484088401E00B2774948800C
:1040A0000EE07548007C00F0010048B97348408874
:1040B000401E00B27149488002E020206E4908721B
:1040C0006E48B0F9020042F20F71884203DB0846E5
:1040D0006A49488007E06948B0F90200002802DC1C
:1040E0000020664948806648007A202804D1644848
:1040F000408904283FF4FDAE10BD10B5614800783A
:1041000000F0100038B15F48007820F010005D49E1
:104110000870FEF7F4FC1F205849087010BD10B558
:1041200041E0FFF7EAFF5848B0F90A00584909781A
:10413000884217D05448007A202813D15248807AF8
:104140005349087000205049488152480078401C6B
:1041500040B250490870084690F90000032801DD7C
:10416000002008704448B0F90A004949097888429B
:1041700013D04148007A20280FD100203E494881C1
:1041800044480078401E40B242490870084690F901
:104190000000002801DA032008703948B0F90A004D
:1041A000042800DB03E03B4800780028B9D000BFBA
:1041B0003DE0FFF78FFE3448B0F90A003449097832
:1041C000884213D03048007A20280FD100202E4991
:1041D000488130480078401C40B22E49087008469B
:1041E00090F90000032801DD002008702248B0F992
:1041F0000A0027490978884213D01F48007A2028EE
:104200000FD100201C49488122480078401E40B24E
:1042100020490870084690F90000002801DA0320C0
:1042200008701748B0F90A00042800DD03E01948B7
:1042300000780128BDD000BF4EE0FFF72AFD1248EC
:10424000B0F90A0012490978884213D00E48007A62
:1042500020280FD100200C4948810E480078401CCE
:1042600040B20C490870084690F90000032801DDAF
:104270000020087000480FE02001002048000020C6
:10428000E00000208D0000200001002054000020EC
:104290005300002050000020B0F90A00D0490978EE
:1042A000884213D0CF48007A20280FD10020CD4972
:1042B0004881CD480078401E40B2CB49087008467E
:1042C00090F90000002801DA03200870C748B0F90F
:1042D0000A00042800DD03E0C34800780228ACD0BF
:1042E00000BF3DE0FFF7C2FBC148B0F90A00BC497E
:1042F0000978884213D0BE48007A20280FD10020C8
:10430000BB494881B8480078401C40B2B6490870A3
:10431000084690F90000032801DD00200870B1482C
:10432000B0F90A00AE490978884213D0AD48007A46
:1043300020280FD10020AB494881AB480078401EAF
:1043400040B2A9490870084690F90000002801DA37
:1043500003200870A548B0F90A00042800DD03E036
:10436000A14800780328BDD000BF10BD10B5A148FA
:104370000068FEF763FB9E48B0F90A009E49097881
:10438000884210D09A48007A20280CD19848807A28
:104390009949087000209649488196480068401C59
:1043A0009449086045E09248C07901283ED1904880
:1043B000007A21283AD100208D49488108460069B9
:1043C00041F2707188420DD2894800691421B0FB16
:1043D000F1F201FB120040BB86480068401C854991
:1043E000086026E08248006941F27071884212D963
:1043F0007F480069490088420DD27D4800690A2142
:10440000B0FBF1F201FB120078B97A480068401C59
:10441000784908600DE07648007C00F0010020B982
:1044200074480068401C7349086002E0202070490D
:1044300008726C48B0F90A006F49097888420CD0BC
:104440006848007A202808D10020664948816948D8
:104450000068401E6749086045E06248C07901284D
:104460003ED16048007A21283AD100205D49488138
:104470000846006941F2707188420DD259480069BE
:104480001421B0FBF1F201FB120040BB5948006857
:10449000401E5849086026E05248006941F2707198
:1044A000884212D94F480069490088420DD24D48D0
:1044B00000690A21B0FBF1F201FB120078B94D4806
:1044C0000068401E4B4908600DE04648007C00F043
:1044D000010020B947480068401E4649086002E0D4
:1044E00020204049087243480068002803DC00206F
:1044F0004049086008E03F48006842F20F71884276
:1045000002DB08463B49086010BD10B53748807A89
:104510003A4908703348C079012803D13348C0793B
:1045200001285BD03248C079012857D048E0FFF716
:104530001DFF2E48B0F90A0030490978884225D07D
:104540002A48007A202821D10320284948812C4874
:1045500000781F2803D100202349087016E028485E
:104560000078202803D101201F4908700EE024485C
:104570000078212803D102201B49087006E020485A
:104580000078222802D10320174908700FE0FFF7B6
:10459000C6FD1648007A202809D11448B0F90A004F
:1045A000042804DB002011494881C87107E00F4846
:1045B000007A202803D10D4840890328E7D000BFA6
:1045C0000A48C079012805D1084800690749896966
:1045D0008842ACD20548007A2128A8D010BD00003E
:1045E000530000202001002050000020E0000020A7
:1045F0000001002044000020520000205100002053
:104600004800002070470146F84AB2F90020914264
:1046100001D3012006E0F54AB2F90020323A8A427D
:1046200000D30020704710B5F148007A21282FD11F
:10463000F048007A21282BD1EE48C079012827D1F3
:10464000ED480078332803D13420EB49087002E0AC
:104650003320E94908700020E549488105E0012040
:10466000FEF733F80120E5490870E148FFF760F9EB
:10467000012804D1DF48FFF75BF90128EFD01F20A4
:10468000DB49087200204881DA4948811F200872FE
:10469000D748007A212825D1D948007A212821D16C
:1046A000D748C07901281DD10020D649086005E00F
:1046B0000320FEF70AF80120D0490870CC48FFF724
:1046C00037F9012804D1CE48FFF732F90128EFD09D
:1046D0001F20C7490872002008614881C8494881E5
:1046E0001F20087210BD10B50021C7480088FEF7D2
:1046F000ABFDC348B0F90A00C4490978884210D01C
:10470000BF48007A20280CD1BD48807ABF49087084
:104710000020BB494881BC480088401CBA49088039
:1047200045E0B748C07901283ED1B548007A212834
:104730003AD10020B24948810846006941F27071BF
:1047400088420DD2AE4800691421B0FBF1F201FBA2
:10475000120040BBAC480088401CAB49088026E0F2
:10476000A748006941F27071884212D9A4480069D3
:10477000490088420DD2A24800690A21B0FBF1F23B
:1047800001FB120078B9A0480088401C9E490880AF
:104790000DE09B48007C00F0010020B99A48008899
:1047A000401C9949088002E02020954908729148F0
:1047B000B0F90A009549097888420CD08D48007AF2
:1047C000202808D100208B4948818F480088401E4E
:1047D0008D49088045E08748C07901283ED1854849
:1047E000007A21283AD10020824948810846006990
:1047F00041F2707188420DD27E4800691421B0FBED
:10480000F1F201FB120040BB7F480088401E7E4948
:10481000088026E07748006941F27071884212D919
:1048200074480069490088420DD2724800690A2123
:10483000B0FBF1F201FB120078B973480088401E0A
:10484000714908800DE06B48007C00F0010020B940
:104850006D480088401E6C49088002E020206549B0
:10486000087269480088B0F5967F04DB4FF49670B3
:104870006549088006E0644800881E2802DC1E2086
:104880006149088010BD10B5FFF72DFF10BD10B5B0
:104890005C48008800B2FEF770F810BD10B55C48A7
:1048A0000078FEF736F85648B0F90A0059490978F9
:1048B000884214D05248007A202810D15048807A7B
:1048C0005449087000204E4948815148007818B971
:1048D00001204F49087002E000204D49087045480A
:1048E000B0F90A004B490978884210D04148007A53
:1048F00020280CD100203F4948814548007818B94C
:1049000001204349087002E000204149087010BDB1
:1049100010B54148008801B23448B0F90000FDF7F5
:1049200044FF3348C07900285FD13448007800281C
:10493000FAD1314800783328F6D12C48B0F900007C
:10494000364908802E48B0F90A003549097888426E
:1049500011D02B48007A20280DD12948807A30497F
:10496000087000202649488120480088401C00B279
:104970001E49088065E02248C07901285ED12048A0
:10498000007A21285AD100201D4948810846006933
:1049900041F2707188420ED8194800691421B0FBA9
:1049A000F1F201FB1200F8B910480088401C00B277
:1049B0000E49088045E01248006941F27071884252
:1049C00030D90F480069490088422BD80C4800694B
:1049D0000A21B0FBF1F201FB120028B9034800885C
:1049E000401C00B2014908802BE089E05E000020F5
:1049F000E000002020010020800000208C0000202A
:104A0000000100207C0000205C000020A5000020A8
:104A100061000020A400002070000020A2000020FF
:104A2000A0000020F648007C00F0010048B9F548DD
:104A30000088401C00B2F349088002E02020F049C1
:104A40000872F148B0F90A00F049097888420DD09F
:104A5000ED48007A202809D10020EB494881E94837
:104A60000088401E00B2E749088048E0E648C07967
:104A7000012841D1E448007A21283DD10020E249B3
:104A800048810846006941F2707188420ED2DE48C2
:104A900000691421B0FBF1F201FB1200F8B9D9480A
:104AA0000088401E00B2D749088028E0D648006937
:104AB00041F27071884213D9D34800694900884295
:104AC0000ED2D14800690A21B0FBF1F201FB1200BD
:104AD00028B9CC480088401E00B2CA4908800EE0C0
:104AE000C948007C00F0010048B9C6480088401E53
:104AF00000B2C449088002E02020C349087200BF08
:104B0000C048B0F90000B0F57A6F04DB4FF47A606A
:104B1000BC49088007E0BB48B0F90000002802DC6F
:104B20000020B849088010BD10B5B9480078332876
:104B300041D1B848408918B90020B74908701CE035
:104B4000B448007A20280AD1B2484089012806D109
:104B5000AD48C07918B90120AF4908700DE0AD48E3
:104B6000007A202809D1AB484089022805D1A648FF
:104B7000C07910B90220A8490870A648007A2028F8
:104B800009D1A4484089032805D19F48C07910B9AC
:104B90000320A14908709F48007A20280BD19D4826
:104BA0004089042807D19848C07920B90020994944
:104BB0004881994908709848007810B9FFF7A8FE15
:104BC00013E095480078012802D1FFF767FE0CE05A
:104BD00091480078022802D1FFF759FE05E08E487F
:104BE0000078032801D1FFF74EFE10BD10B58B48A9
:104BF000007801280FD04FF400618948FCF799F83C
:104C000004461CB901208549087004E0002083494E
:104C100008708449087081480078A8B1824800680B
:104C2000642811D301207F490870002241027F4887
:104C3000FCF79DF800224FF480717C48FCF797F850
:104C40007B4800687B49086010BD002100E0491CDA
:104C500000EB8002B1EB420FF9D3704700B500239F
:104C600041F27070FFF7F1FF73480068401C724911
:104C7000086000BDFFF7F2FF63E07048007820F0A5
:104C800001006E4908706E496E4A128801EB82007D
:104C9000FFF7B8FC6A48D0F800146A480288008818
:104CA000401C684B1880664850F82200084464494C
:104CB000C1F8000418460088802805DD0020194648
:104CC00008800120604908705F48007860B10020CA
:104CD0005D4908705A48D0F80004C0095B49086073
:104CE00000205749C1F80004FFF780FF1BE00022B5
:104CF0004FF400714D48FCF73AF800224FF48071F0
:104D00004A48FCF734F84A4800684A490968401A9A
:104D100044F62061884206D3002042490870424987
:104D200008603E4908703F4800780028DFD1FFF74F
:104D3000FBFEFFF778FC36480078332801D1FFF7F7
:104D4000E4FB9AE710B535480078012838D0404890
:104D500000781F2815D13F48007840B10122510248
:104D60003248FCF704F800203949486028E0002266
:104D70004FF400712D48FBF7FAFF002034494860DA
:104D80001EE03348007820281AD13248007840B11C
:104D9000012251022548FBF7EAFF00202C49486018
:104DA0000EE02B484168B0F902002B4A12685043CC
:104DB000814205D900224FF400711C48FBF7D7FF50
:104DC00010BD10B515480078012817D02348007889
:104DD00020B1012211021548FBF7C9FF2048B0F9A4
:104DE0000000FA280ADB00201C4908701C490880D2
:104DF00000224FF480710D48FBF7B9FF10BD000091
:104E0000000100205E00002020010020A000002002
:104E100080000020E0000020940000208E00002090
:104E2000000C0140810000208400002000080140A7
:104E300088000020900000209C0000208D000020B1
:104E400050010020740000206C0000207000002041
:104E5000480000206200002058000020630000206D
:104E60006400002070B504460D4600BF4021FE4896
:104E7000FBF712FE0028F9D0E1B2FB48FBF79EFDDC
:104E8000204670BD10B5FBF77BFA0120FBF7FFFA57
:104E900000BF2120FBF7B9FA0028FAD00020FBF769
:104EA00022FB4FF420110020FBF7F4FA0120FBF75E
:104EB000FDFA00BF3920FBF7A8FA0028FAD002203B
:104EC000FBF703FB00BFFBF709FB0828FBD110BD74
:104ED0001FB501210220FBF7DBFB1D208DF8000030
:104EE00000208DF8010001208DF802008DF80300EC
:104EF0006846FBF7DEFFDD48FCF722FB01A8FCF764
:104F00001FFF0020ADF80A00ADF806000A20ADF83A
:104F100008002F20ADF8040000208DF80C0001A936
:104F2000D248FCF7E1FB01221146D048FCF753FFC1
:104F30000121CE48FCF734FF1FBD1FB50121C80277
:104F4000FBF799FB01210846FBF7A2FB0121042096
:104F5000FBF784FB1C208DF8000001208DF8030076
:104F60006846FBF7A6FF4FF08040FCF7E9FA01A87E
:104F7000FCF7E6FE0020ADF806000A20ADF80800B8
:104F80002F20ADF8040000208DF80C0001A94FF08F
:104F90008040FCF7A9FB012211469007FCF71BFF9C
:104FA00020214806FDF775F901218807FCF7F8FE76
:104FB0001FBD08B501210420FBF750FB012108208B
:104FC000FBF74CFB01211020FBF748FB01212020BF
:104FD000FBF744FB01214020FBF740FB012180202F
:104FE000FBF73CFB6846FBF79CFE4FF48060ADF896
:104FF000000010208DF8030003208DF802006946A0
:105000009B48FBF703FE4FF48060ADF800001020D2
:105010008DF8030002208DF8020069469448FBF7E2
:10502000F5FD4FF40060ADF8000069469048FBF7CD
:10503000EDFD4FF48050ADF8000069468C48FBF759
:10504000E5FD4FF40040ADF8000069468848FBF7E5
:10505000DDFD4FF40050ADF8000010208DF8030086
:1050600002208DF8020069468248FBF7CFFD4FF41D
:105070008040ADF8000069467E48FBF7C7FD4FF45D
:105080000040ADF8000069467A48FBF7BFFD0120FB
:10509000ADF8000010208DF8030002208DF802000A
:1050A00069467548FBF7B2FD0120ADF8000069467E
:1050B0007148FBF7ABFD4020ADF8000010208DF8E3
:1050C000030002208DF8020069466C48FBF79EFD44
:1050D0004FF48070ADF8000069466848FBF796FD14
:1050E0000820ADF8000069466448FBF78FFD4FF4D7
:1050F0000070ADF8000069466048FBF787FD80202E
:10510000ADF8000069465D48FBF780FD2020ADF852
:10511000000069465948FBF779FD1020ADF8000002
:1051200069465648FBF772FD0122D1035048FBF750
:105130001EFE012211034E48FBF719FE0122D10287
:105140004B48FBF714FE012291024948FBF70FFE82
:10515000012251034748FBF70AFE0122910345480B
:10516000FBF705FE0122D1034248FBF700FE0122B6
:1051700002214148FBF7FBFD012211463E48FBF7A7
:10518000F6FD012240213D48FBF7F1FD012211020D
:105190003A48FBF7ECFD012208213848FBF7E7FD10
:1051A000012251023548FBF7E2FD012280213348FC
:1051B000FBF7DDFD012220213048FBF7D8FD01225D
:1051C00010212E48FBF7D3FD08BD1FB50121052096
:1051D000FBF751FA0420ADF8000048208DF80300D9
:1051E00003208DF8020069462148FBF70FFD0420DB
:1051F000FDF739F902210020FBF71EFE0420019083
:1052000000208DF808000C208DF8090001208DF891
:105210000A0001A8FDF7B0F84FF44070FBF744FE18
:1052200008208DF80C0000208DF80D0001208DF86D
:105230000E008DF80F0003A8FBF73BFE1FBD08B55D
:1052400001210420FBF70AFA01210820FBF706FAE6
:1052500001211020FBF702FA01212020FBF7FEF9C3
:10526000012140200CE00000003801400004004013
:105270000008014000100140001C0140000C0140EA
:10528000FBF7ECF901218020FBF7E8F96846FBF712
:1052900048FD4FF40070ADF8000010208DF80300B9
:1052A00003208DF802006946D448FBF7AFFC4FF4A9
:1052B0008070ADF8000010208DF8030003208DF8F9
:1052C00002006946CD48FBF7A1FC8020ADF8000044
:1052D00010208DF8030003208DF802006946C748AE
:1052E000FBF794FC4020ADF8000010208DF803007F
:1052F00003208DF802006946C048FBF787FC4FF495
:105300000060ADF8000004208DF8030002208DF845
:1053100002006946BA48FBF779FC08BD10B50420C5
:10532000FDF790F8A8B10420FDF79DF8B548006896
:10533000401CB449086008460068B34909688842BF
:1053400002D30020AF4908600120B0490870FFF780
:10535000F9FC10BD10B501218807FCF7EAFF18B170
:1053600001218807FCF7F6FF10BD10B50121A84800
:10537000FCF7DFFF18B10121A548FCF7EBFF10BDDA
:1053800010B50121A348FCF7D4FF00283DD0A24866
:105390000068401CA0490860084600680A21B0FB6C
:1053A000F1F201FB1200E8B99C48007828B19C4852
:1053B0000088401C00B29A490880FDF75DF9FEF7AD
:1053C000CAFA98480068401C9649086096480078D8
:1053D00028B196480068401C9449086002E000200B
:1053E000924908608C48006841F28831884208D3AD
:1053F0008F48007840F010008D49087000208649E1
:10540000086001218348FCF7A5FF10BD10B5FFF728
:1054100039FDFFF792FDFFF75BFD8648FBF7BFF80C
:10542000FFF70DFFFFF7D1FEFFF7C3FDFEF7ECF925
:1054300010BD814A1268127902707F4A1268127A8E
:1054400042707D4A1268527882707B4A1268D27824
:10545000C270794A126812780271774A12685279DA
:105460004271754A1268927A8271734A1268D279CF
:10547000C271714A1268527A02726F4A1268927847
:1054800042726D4A1268D27A82726B4A12689279BD
:10549000C2726A4A1268127803785A400A70674AE0
:1054A0001268527883795A40C3795A40037A5A4035
:1054B000437A5A40837A5A40C37A5A404A705F4AC4
:1054C0001268927803795A408A705C4A1268D278DE
:1054D00083785A4043785A40CA70704710B558498B
:1054E0005848FFF7A6FF564800785549497800EB21
:1054F00001205349897800EB01405149C97800EBFC
:1055000001605149086051480068514908600846E7
:1055100000684D490968884201D1012400E0002457
:10552000204610BD10B5FFF771FFFFF7D7FF4949BF
:1055300008700846007810B1FFF79CFB02E000E01D
:1055400000BFFDE7002010BD70B504460D46FBF717
:1055500038FD3520FBF7D0FF3F48FBF777FD3E498C
:1055600001EB84002946FBF741FE3520FBF7C4FF21
:10557000FBF733FD70BD002037490968374A1160D9
:105580001146096801F07040704710B502460B469D
:105590002CE0802127E03248008800F4004078B1F8
:1055A0002F4800884FF6FF7404EA40002C4C2080FE
:1055B0002046008841F221046040294C208007E009
:1055C000274800884FF6FF7404EA4000244C2080EE
:1055D0001078084030B12248008841F22104604030
:1055E0001F4C208049100029D5D1521C1800A3F16E
:1055F0000104E3B2CDD11A48008810BD0008014073
:10560000000C01407C0000204400002062000020CB
:10561000002C014000040040AC000020630000208A
:1056200064000020880000208E00002084000020FC
:105630008D00002048060020B8000020C000002097
:10564000C40000205C060020C80000200080000884
:10565000CC000020A800002000700008B40000204A
:10566000D0000020704770477047754600F028F85A
:10567000AE4605006946534620F00700854618B03F
:1056800020B5FAF76BFEBDE820404FF000064FF062
:1056900000074FF000084FF0000B21F00701AC4667
:1056A000ACE8C009ACE8C009ACE8C009ACE8C00986
:1056B0008D4670470446AFF300802046FAF75DFD43
:1056C000004870476806002001491820ABBEFEE77D
:1056D000260002007047FEFFFDFFFBFFF7FFEFFF14
:1056E000DFFFBFFF7FFFFFFE3F0030005B00790060
:1056F00074006D006F0038007F007D007E00670041
:105700000F0073004F004E00400063006200230052
:105710006D004700000007005E004E007600390073
:105720000E000100020004000800100020004000EC
:105730008000FF00000037005857000800000020DC
:10574000D4000000280100082C580008D4000020D4
:10575000F40B00004401000800366E010000000058
:105760000000000001020304060708090000000011
:1057700001020304010203040607080902040608E3
:105780000000000000000000000400000000000015
:10579000010101010101010101000000E803000015
:1057A0001F000A00000000000000000000000000D0
:1057B000170000003200E8030001000000000000B4
:1057C00000000000000000000000000000000000D9
:1057D000E8030000000000003300000000000000AB
:1057E00000000000000000000000000000001E009B
:1057F00002020000000000000000000000000000A5
:105800000000000000000000000000000000000098
:10581000E8F7FF1F43191019BC000020000000002A
:0C5820000000000000000000000000007C
:04000005080000ED02
:00000001FF
